{
  "contractName": "StorageFactory",
  "abi": [
    {
      "inputs": [
        {
          "internalType": "uint256",
          "name": "",
          "type": "uint256"
        }
      ],
      "name": "simpleStorageArray",
      "outputs": [
        {
          "internalType": "contract SimpleStorage",
          "name": "",
          "type": "address"
        }
      ],
      "stateMutability": "view",
      "type": "function"
    },
    {
      "inputs": [],
      "name": "createSimpleStorageContract",
      "outputs": [],
      "stateMutability": "nonpayable",
      "type": "function"
    },
    {
      "inputs": [
        {
          "internalType": "uint256",
          "name": "_num",
          "type": "uint256"
        }
      ],
      "name": "addNum",
      "outputs": [],
      "stateMutability": "nonpayable",
      "type": "function"
    },
    {
      "inputs": [],
      "name": "readData",
      "outputs": [
        {
          "internalType": "uint256",
          "name": "",
          "type": "uint256"
        }
      ],
      "stateMutability": "view",
      "type": "function"
    }
  ],
  "bytecode": "0x608060405234801561001057600080fd5b50610e3a806100206000396000f3fe608060405234801561001057600080fd5b506004361061004c5760003560e01c80631dda65411461005157806364591bf11461005b578063752783621461008b578063bef55ef3146100a7575b600080fd5b6100596100c5565b005b610075600480360381019061007091906101fe565b610158565b60405161008291906102aa565b60405180910390f35b6100a560048036038101906100a091906101fe565b610197565b005b6100af6101ad565b6040516100bc91906102d4565b60405180910390f35b60006040516100d3906101b6565b604051809103906000f0801580156100ef573d6000803e3d6000fd5b5090506001819080600181540180825580915050600190039060005260206000200160009091909190916101000a81548173ffffffffffffffffffffffffffffffffffffffff021916908373ffffffffffffffffffffffffffffffffffffffff16021790555050565b6001818154811061016857600080fd5b906000526020600020016000915054906101000a900473ffffffffffffffffffffffffffffffffffffffff1681565b600a816101a4919061045e565b60008190555050565b60008054905090565b61095b806104aa83390190565b600080fd5b6000819050919050565b6101db816101c8565b81146101e657600080fd5b50565b6000813590506101f8816101d2565b92915050565b600060208284031215610214576102136101c3565b5b6000610222848285016101e9565b91505092915050565b600073ffffffffffffffffffffffffffffffffffffffff82169050919050565b6000819050919050565b600061027061026b6102668461022b565b61024b565b61022b565b9050919050565b600061028282610255565b9050919050565b600061029482610277565b9050919050565b6102a481610289565b82525050565b60006020820190506102bf600083018461029b565b92915050565b6102ce816101c8565b82525050565b60006020820190506102e960008301846102c5565b92915050565b7f4e487b7100000000000000000000000000000000000000000000000000000000600052601160045260246000fd5b60008160011c9050919050565b6000808291508390505b600185111561037557808604811115610351576103506102ef565b5b60018516156103605780820291505b808102905061036e8561031e565b9450610335565b94509492505050565b60008261038e576001905061044a565b8161039c576000905061044a565b81600181146103b257600281146103bc576103eb565b600191505061044a565b60ff8411156103ce576103cd6102ef565b5b8360020a9150848211156103e5576103e46102ef565b5b5061044a565b5060208310610133831016604e8410600b84101617156104205782820a90508381111561041b5761041a6102ef565b5b61044a565b61042d848484600161032b565b92509050818404811115610444576104436102ef565b5b81810290505b9392505050565b600060ff82169050919050565b6000610469826101c8565b915061047483610451565b92506104a17fffffffffffffffffffffffffffffffffffffffffffffffffffffffffffffffff848461037e565b90509291505056fe608060405234801561001057600080fd5b5061093b806100206000396000f3fe608060405234801561001057600080fd5b50600436106100575760003560e01c80632e64cec11461005c5780636057361d1461007a5780636f760f41146100965780638bab8dd5146100b25780639e7a13ad146100e2575b600080fd5b610064610113565b60405161007191906102b2565b60405180910390f35b610094600480360381019061008f919061030d565b61011c565b005b6100b060048036038101906100ab9190610480565b610126565b005b6100cc60048036038101906100c791906104dc565b6101af565b6040516100d991906102b2565b60405180910390f35b6100fc60048036038101906100f7919061030d565b6101dd565b60405161010a9291906105a4565b60405180910390f35b60008054905090565b8060008190555050565b6001604051806040016040528083815260200184815250908060018154018082558091505060019003906000526020600020906002020160009091909190915060008201518160000155602082015181600101908161018591906107e0565b5050508060028360405161019991906108ee565b9081526020016040518091039020819055505050565b6002818051602081018201805184825260208301602085012081835280955050505050506000915090505481565b600181815481106101ed57600080fd5b906000526020600020906002020160009150905080600001549080600101805461021690610603565b80601f016020809104026020016040519081016040528092919081815260200182805461024290610603565b801561028f5780601f106102645761010080835404028352916020019161028f565b820191906000526020600020905b81548152906001019060200180831161027257829003601f168201915b5050505050905082565b6000819050919050565b6102ac81610299565b82525050565b60006020820190506102c760008301846102a3565b92915050565b6000604051905090565b600080fd5b600080fd5b6102ea81610299565b81146102f557600080fd5b50565b600081359050610307816102e1565b92915050565b600060208284031215610323576103226102d7565b5b6000610331848285016102f8565b91505092915050565b600080fd5b600080fd5b6000601f19601f8301169050919050565b7f4e487b7100000000000000000000000000000000000000000000000000000000600052604160045260246000fd5b61038d82610344565b810181811067ffffffffffffffff821117156103ac576103ab610355565b5b80604052505050565b60006103bf6102cd565b90506103cb8282610384565b919050565b600067ffffffffffffffff8211156103eb576103ea610355565b5b6103f482610344565b9050602081019050919050565b82818337600083830152505050565b600061042361041e846103d0565b6103b5565b90508281526020810184848401111561043f5761043e61033f565b5b61044a848285610401565b509392505050565b600082601f8301126104675761046661033a565b5b8135610477848260208601610410565b91505092915050565b60008060408385031215610497576104966102d7565b5b600083013567ffffffffffffffff8111156104b5576104b46102dc565b5b6104c185828601610452565b92505060206104d2858286016102f8565b9150509250929050565b6000602082840312156104f2576104f16102d7565b5b600082013567ffffffffffffffff8111156105105761050f6102dc565b5b61051c84828501610452565b91505092915050565b600081519050919050565b600082825260208201905092915050565b60005b8381101561055f578082015181840152602081019050610544565b60008484015250505050565b600061057682610525565b6105808185610530565b9350610590818560208601610541565b61059981610344565b840191505092915050565b60006040820190506105b960008301856102a3565b81810360208301526105cb818461056b565b90509392505050565b7f4e487b7100000000000000000000000000000000000000000000000000000000600052602260045260246000fd5b6000600282049050600182168061061b57607f821691505b60208210810361062e5761062d6105d4565b5b50919050565b60008190508160005260206000209050919050565b60006020601f8301049050919050565b600082821b905092915050565b6000600883026106967fffffffffffffffffffffffffffffffffffffffffffffffffffffffffffffffff82610659565b6106a08683610659565b95508019841693508086168417925050509392505050565b6000819050919050565b60006106dd6106d86106d384610299565b6106b8565b610299565b9050919050565b6000819050919050565b6106f7836106c2565b61070b610703826106e4565b848454610666565b825550505050565b600090565b610720610713565b61072b8184846106ee565b505050565b5b8181101561074f57610744600082610718565b600181019050610731565b5050565b601f8211156107945761076581610634565b61076e84610649565b8101602085101561077d578190505b61079161078985610649565b830182610730565b50505b505050565b600082821c905092915050565b60006107b760001984600802610799565b1980831691505092915050565b60006107d083836107a6565b9150826002028217905092915050565b6107e982610525565b67ffffffffffffffff81111561080257610801610355565b5b61080c8254610603565b610817828285610753565b600060209050601f83116001811461084a5760008415610838578287015190505b61084285826107c4565b8655506108aa565b601f19841661085886610634565b60005b828110156108805784890151825560018201915060208501945060208101905061085b565b8683101561089d5784890151610899601f8916826107a6565b8355505b6001600288020188555050505b505050505050565b600081905092915050565b60006108c882610525565b6108d281856108b2565b93506108e2818560208601610541565b80840191505092915050565b60006108fa82846108bd565b91508190509291505056fea2646970667358221220729edd44415889f2026a3b6520af87ce32b4cae50824d7858381b105ea6d535d64736f6c63430008110033a2646970667358221220eb9d02b368e70c65bed54e1a6211b0b1e6c577433bf5195ecc9891045f4884b064736f6c63430008110033",
  "immutableReferences": {},
  "source": "//SPDX-License-Identifier: MIT\npragma solidity ^0.8.0;\n\nimport \"./SimpleStorage.sol\";\n\ncontract StorageFactory{\n  uint256 num;\n  SimpleStorage[] public simpleStorageArray;\n\n  function createSimpleStorageContract()public{\n    SimpleStorage simpleStorage=new SimpleStorage();\n    simpleStorageArray.push(simpleStorage);\n  }\n  function addNum(uint256 _num)public{\n    num=_num**10;\n  }\n  function readData()public view returns(uint256){\n    return num;\n  }\n}\n",
  "sourcePath": "/Users/kev/TestCoin/contracts/StorageFactory.sol",
  "compiler": {
    "name": "solc",
    "version": "0.8.17+commit.8df45f5f.Emscripten.clang"
  },
  "schemaVersion": "3.4.11",
  "updatedAt": "2023-02-11T05:57:04.660Z",
  "devdoc": {
    "kind": "dev",
    "methods": {},
    "version": 1
  },
  "userdoc": {
    "kind": "user",
    "methods": {},
    "version": 1
  }
}